{
  "_format": "hh-sol-artifact-1",
  "contractName": "DappNFT",
  "sourceName": "contracts/DappNFT.sol",
  "abi": [
    {
      "inputs": [],
      "stateMutability": "nonpayable",
      "type": "constructor"
    },
    {
      "inputs": [
        {
          "internalType": "address",
          "name": "sender",
          "type": "address"
        },
        {
          "internalType": "uint256",
          "name": "tokenId",
          "type": "uint256"
        },
        {
          "internalType": "address",
          "name": "owner",
          "type": "address"
        }
      ],
      "name": "ERC721IncorrectOwner",
      "type": "error"
    },
    {
      "inputs": [
        {
          "internalType": "address",
          "name": "operator",
          "type": "address"
        },
        {
          "internalType": "uint256",
          "name": "tokenId",
          "type": "uint256"
        }
      ],
      "name": "ERC721InsufficientApproval",
      "type": "error"
    },
    {
      "inputs": [
        {
          "internalType": "address",
          "name": "approver",
          "type": "address"
        }
      ],
      "name": "ERC721InvalidApprover",
      "type": "error"
    },
    {
      "inputs": [
        {
          "internalType": "address",
          "name": "operator",
          "type": "address"
        }
      ],
      "name": "ERC721InvalidOperator",
      "type": "error"
    },
    {
      "inputs": [
        {
          "internalType": "address",
          "name": "owner",
          "type": "address"
        }
      ],
      "name": "ERC721InvalidOwner",
      "type": "error"
    },
    {
      "inputs": [
        {
          "internalType": "address",
          "name": "receiver",
          "type": "address"
        }
      ],
      "name": "ERC721InvalidReceiver",
      "type": "error"
    },
    {
      "inputs": [
        {
          "internalType": "address",
          "name": "sender",
          "type": "address"
        }
      ],
      "name": "ERC721InvalidSender",
      "type": "error"
    },
    {
      "inputs": [
        {
          "internalType": "uint256",
          "name": "tokenId",
          "type": "uint256"
        }
      ],
      "name": "ERC721NonexistentToken",
      "type": "error"
    },
    {
      "inputs": [
        {
          "internalType": "address",
          "name": "owner",
          "type": "address"
        }
      ],
      "name": "OwnableInvalidOwner",
      "type": "error"
    },
    {
      "inputs": [
        {
          "internalType": "address",
          "name": "account",
          "type": "address"
        }
      ],
      "name": "OwnableUnauthorizedAccount",
      "type": "error"
    },
    {
      "anonymous": false,
      "inputs": [
        {
          "indexed": true,
          "internalType": "address",
          "name": "owner",
          "type": "address"
        },
        {
          "indexed": true,
          "internalType": "address",
          "name": "approved",
          "type": "address"
        },
        {
          "indexed": true,
          "internalType": "uint256",
          "name": "tokenId",
          "type": "uint256"
        }
      ],
      "name": "Approval",
      "type": "event"
    },
    {
      "anonymous": false,
      "inputs": [
        {
          "indexed": true,
          "internalType": "address",
          "name": "owner",
          "type": "address"
        },
        {
          "indexed": true,
          "internalType": "address",
          "name": "operator",
          "type": "address"
        },
        {
          "indexed": false,
          "internalType": "bool",
          "name": "approved",
          "type": "bool"
        }
      ],
      "name": "ApprovalForAll",
      "type": "event"
    },
    {
      "anonymous": false,
      "inputs": [
        {
          "indexed": false,
          "internalType": "uint256",
          "name": "_fromTokenId",
          "type": "uint256"
        },
        {
          "indexed": false,
          "internalType": "uint256",
          "name": "_toTokenId",
          "type": "uint256"
        }
      ],
      "name": "BatchMetadataUpdate",
      "type": "event"
    },
    {
      "anonymous": false,
      "inputs": [
        {
          "indexed": false,
          "internalType": "uint256",
          "name": "_tokenId",
          "type": "uint256"
        }
      ],
      "name": "MetadataUpdate",
      "type": "event"
    },
    {
      "anonymous": false,
      "inputs": [
        {
          "indexed": true,
          "internalType": "address",
          "name": "previousOwner",
          "type": "address"
        },
        {
          "indexed": true,
          "internalType": "address",
          "name": "newOwner",
          "type": "address"
        }
      ],
      "name": "OwnershipTransferred",
      "type": "event"
    },
    {
      "anonymous": false,
      "inputs": [
        {
          "indexed": true,
          "internalType": "address",
          "name": "from",
          "type": "address"
        },
        {
          "indexed": true,
          "internalType": "address",
          "name": "to",
          "type": "address"
        },
        {
          "indexed": true,
          "internalType": "uint256",
          "name": "tokenId",
          "type": "uint256"
        }
      ],
      "name": "Transfer",
      "type": "event"
    },
    {
      "inputs": [
        {
          "internalType": "address",
          "name": "to",
          "type": "address"
        },
        {
          "internalType": "uint256",
          "name": "tokenId",
          "type": "uint256"
        }
      ],
      "name": "approve",
      "outputs": [],
      "stateMutability": "nonpayable",
      "type": "function"
    },
    {
      "inputs": [
        {
          "internalType": "address",
          "name": "owner",
          "type": "address"
        }
      ],
      "name": "balanceOf",
      "outputs": [
        {
          "internalType": "uint256",
          "name": "",
          "type": "uint256"
        }
      ],
      "stateMutability": "view",
      "type": "function"
    },
    {
      "inputs": [
        {
          "internalType": "address",
          "name": "to",
          "type": "address"
        },
        {
          "internalType": "string",
          "name": "tokenURI",
          "type": "string"
        }
      ],
      "name": "createCollectible",
      "outputs": [
        {
          "internalType": "uint256",
          "name": "",
          "type": "uint256"
        }
      ],
      "stateMutability": "nonpayable",
      "type": "function"
    },
    {
      "inputs": [
        {
          "internalType": "uint256",
          "name": "tokenId",
          "type": "uint256"
        }
      ],
      "name": "getApproved",
      "outputs": [
        {
          "internalType": "address",
          "name": "",
          "type": "address"
        }
      ],
      "stateMutability": "view",
      "type": "function"
    },
    {
      "inputs": [
        {
          "internalType": "address",
          "name": "owner",
          "type": "address"
        },
        {
          "internalType": "address",
          "name": "operator",
          "type": "address"
        }
      ],
      "name": "isApprovedForAll",
      "outputs": [
        {
          "internalType": "bool",
          "name": "",
          "type": "bool"
        }
      ],
      "stateMutability": "view",
      "type": "function"
    },
    {
      "inputs": [],
      "name": "name",
      "outputs": [
        {
          "internalType": "string",
          "name": "",
          "type": "string"
        }
      ],
      "stateMutability": "view",
      "type": "function"
    },
    {
      "inputs": [],
      "name": "owner",
      "outputs": [
        {
          "internalType": "address",
          "name": "",
          "type": "address"
        }
      ],
      "stateMutability": "view",
      "type": "function"
    },
    {
      "inputs": [
        {
          "internalType": "uint256",
          "name": "tokenId",
          "type": "uint256"
        }
      ],
      "name": "ownerOf",
      "outputs": [
        {
          "internalType": "address",
          "name": "",
          "type": "address"
        }
      ],
      "stateMutability": "view",
      "type": "function"
    },
    {
      "inputs": [],
      "name": "renounceOwnership",
      "outputs": [],
      "stateMutability": "nonpayable",
      "type": "function"
    },
    {
      "inputs": [
        {
          "internalType": "address",
          "name": "from",
          "type": "address"
        },
        {
          "internalType": "address",
          "name": "to",
          "type": "address"
        },
        {
          "internalType": "uint256",
          "name": "tokenId",
          "type": "uint256"
        }
      ],
      "name": "safeTransferFrom",
      "outputs": [],
      "stateMutability": "nonpayable",
      "type": "function"
    },
    {
      "inputs": [
        {
          "internalType": "address",
          "name": "from",
          "type": "address"
        },
        {
          "internalType": "address",
          "name": "to",
          "type": "address"
        },
        {
          "internalType": "uint256",
          "name": "tokenId",
          "type": "uint256"
        },
        {
          "internalType": "bytes",
          "name": "data",
          "type": "bytes"
        }
      ],
      "name": "safeTransferFrom",
      "outputs": [],
      "stateMutability": "nonpayable",
      "type": "function"
    },
    {
      "inputs": [
        {
          "internalType": "address",
          "name": "operator",
          "type": "address"
        },
        {
          "internalType": "bool",
          "name": "approved",
          "type": "bool"
        }
      ],
      "name": "setApprovalForAll",
      "outputs": [],
      "stateMutability": "nonpayable",
      "type": "function"
    },
    {
      "inputs": [
        {
          "internalType": "bytes4",
          "name": "interfaceId",
          "type": "bytes4"
        }
      ],
      "name": "supportsInterface",
      "outputs": [
        {
          "internalType": "bool",
          "name": "",
          "type": "bool"
        }
      ],
      "stateMutability": "view",
      "type": "function"
    },
    {
      "inputs": [],
      "name": "symbol",
      "outputs": [
        {
          "internalType": "string",
          "name": "",
          "type": "string"
        }
      ],
      "stateMutability": "view",
      "type": "function"
    },
    {
      "inputs": [],
      "name": "tokenCounter",
      "outputs": [
        {
          "internalType": "uint256",
          "name": "",
          "type": "uint256"
        }
      ],
      "stateMutability": "view",
      "type": "function"
    },
    {
      "inputs": [
        {
          "internalType": "uint256",
          "name": "tokenId",
          "type": "uint256"
        }
      ],
      "name": "tokenURI",
      "outputs": [
        {
          "internalType": "string",
          "name": "",
          "type": "string"
        }
      ],
      "stateMutability": "view",
      "type": "function"
    },
    {
      "inputs": [
        {
          "internalType": "address",
          "name": "from",
          "type": "address"
        },
        {
          "internalType": "address",
          "name": "to",
          "type": "address"
        },
        {
          "internalType": "uint256",
          "name": "tokenId",
          "type": "uint256"
        }
      ],
      "name": "transferFrom",
      "outputs": [],
      "stateMutability": "nonpayable",
      "type": "function"
    },
    {
      "inputs": [
        {
          "internalType": "address",
          "name": "newOwner",
          "type": "address"
        }
      ],
      "name": "transferOwnership",
      "outputs": [],
      "stateMutability": "nonpayable",
      "type": "function"
    }
  ],
  "bytecode": "0x60806040523480156200001157600080fd5b50336040518060400160405280600781526020016611185c1c13919560ca1b815250604051806040016040528060048152602001631113919560e21b8152508160009081620000619190620001b0565b506001620000708282620001b0565b5050506001600160a01b038116620000a257604051631e4fbdf760e01b81526000600482015260240160405180910390fd5b620000ad81620000b9565b5060006008556200027c565b600780546001600160a01b038381166001600160a01b0319831681179093556040519116919082907f8be0079c531659141344cd1fd0a4f28419497f9722a3daafe3b4186f6b6457e090600090a35050565b634e487b7160e01b600052604160045260246000fd5b600181811c908216806200013657607f821691505b6020821081036200015757634e487b7160e01b600052602260045260246000fd5b50919050565b601f821115620001ab57600081815260208120601f850160051c81016020861015620001865750805b601f850160051c820191505b81811015620001a75782815560010162000192565b5050505b505050565b81516001600160401b03811115620001cc57620001cc6200010b565b620001e481620001dd845462000121565b846200015d565b602080601f8311600181146200021c5760008415620002035750858301515b600019600386901b1c1916600185901b178555620001a7565b600085815260208120601f198616915b828110156200024d578886015182559484019460019091019084016200022c565b50858210156200026c5787850151600019600388901b60f8161c191681555b5050505050600190811b01905550565b611438806200028c6000396000f3fe608060405234801561001057600080fd5b50600436106101165760003560e01c8063715018a6116100a2578063b88d4fde11610071578063b88d4fde14610239578063c87b56dd1461024c578063d082e3811461025f578063e985e9c514610268578063f2fde38b1461027b57600080fd5b8063715018a6146102055780638da5cb5b1461020d57806395d89b411461021e578063a22cb4651461022657600080fd5b806323b872dd116100e957806323b872dd1461019857806342842e0e146101ab5780635b193d07146101be5780636352211e146101df57806370a08231146101f257600080fd5b806301ffc9a71461011b57806306fdde0314610143578063081812fc14610158578063095ea7b314610183575b600080fd5b61012e610129366004610f01565b61028e565b60405190151581526020015b60405180910390f35b61014b6102b9565b60405161013a9190610f6e565b61016b610166366004610f81565b61034b565b6040516001600160a01b03909116815260200161013a565b610196610191366004610fb6565b610374565b005b6101966101a6366004610fe0565b610383565b6101966101b9366004610fe0565b610413565b6101d16101cc3660046110a8565b610433565b60405190815260200161013a565b61016b6101ed366004610f81565b61046d565b6101d161020036600461110a565b610478565b6101966104c0565b6007546001600160a01b031661016b565b61014b6104d4565b610196610234366004611125565b6104e3565b610196610247366004611161565b6104ee565b61014b61025a366004610f81565b610505565b6101d160085481565b61012e6102763660046111dd565b610616565b61019661028936600461110a565b610644565b60006001600160e01b03198216632483248360e11b14806102b357506102b382610682565b92915050565b6060600080546102c890611210565b80601f01602080910402602001604051908101604052809291908181526020018280546102f490611210565b80156103415780601f1061031657610100808354040283529160200191610341565b820191906000526020600020905b81548152906001019060200180831161032457829003601f168201915b5050505050905090565b6000610356826106d2565b506000828152600460205260409020546001600160a01b03166102b3565b61037f82823361070b565b5050565b6001600160a01b0382166103b257604051633250574960e11b8152600060048201526024015b60405180910390fd5b60006103bf838333610718565b9050836001600160a01b0316816001600160a01b03161461040d576040516364283d7b60e01b81526001600160a01b03808616600483015260248201849052821660448201526064016103a9565b50505050565b61042e838383604051806020016040528060008152506104ee565b505050565b6008546000906104438482610811565b61044d818461082b565b600160086000828254610460919061124a565b9091555090949350505050565b60006102b3826106d2565b60006001600160a01b0382166104a4576040516322718ad960e21b8152600060048201526024016103a9565b506001600160a01b031660009081526003602052604090205490565b6104c861087b565b6104d260006108a8565b565b6060600180546102c890611210565b61037f3383836108fa565b6104f9848484610383565b61040d84848484610999565b6060610510826106d2565b506000828152600660205260408120805461052a90611210565b80601f016020809104026020016040519081016040528092919081815260200182805461055690611210565b80156105a35780601f10610578576101008083540402835291602001916105a3565b820191906000526020600020905b81548152906001019060200180831161058657829003601f168201915b5050505050905060006105c160408051602081019091526000815290565b905080516000036105d3575092915050565b8151156106055780826040516020016105ed92919061126b565b60405160208183030381529060405292505050919050565b61060e84610ac2565b949350505050565b6001600160a01b03918216600090815260056020908152604080832093909416825291909152205460ff1690565b61064c61087b565b6001600160a01b03811661067657604051631e4fbdf760e01b8152600060048201526024016103a9565b61067f816108a8565b50565b60006001600160e01b031982166380ac58cd60e01b14806106b357506001600160e01b03198216635b5e139f60e01b145b806102b357506301ffc9a760e01b6001600160e01b03198316146102b3565b6000818152600260205260408120546001600160a01b0316806102b357604051637e27328960e01b8152600481018490526024016103a9565b61042e8383836001610b37565b6000828152600260205260408120546001600160a01b039081169083161561074557610745818486610c3d565b6001600160a01b0381161561078357610762600085600080610b37565b6001600160a01b038116600090815260036020526040902080546000190190555b6001600160a01b038516156107b2576001600160a01b0385166000908152600360205260409020805460010190555b60008481526002602052604080822080546001600160a01b0319166001600160a01b0389811691821790925591518793918516917fddf252ad1be2c89b69c2b068fc378daa952ba7f163c4a11628f55a4df523b3ef91a4949350505050565b61037f828260405180602001604052806000815250610ca1565b600082815260066020526040902061084382826112e8565b506040518281527ff8e1a15aba9398e019f0b49df1a4fde98ee17ae345cb5f6b5e2c27f5033e8ce79060200160405180910390a15050565b6007546001600160a01b031633146104d25760405163118cdaa760e01b81523360048201526024016103a9565b600780546001600160a01b038381166001600160a01b0319831681179093556040519116919082907f8be0079c531659141344cd1fd0a4f28419497f9722a3daafe3b4186f6b6457e090600090a35050565b6001600160a01b03821661092c57604051630b61174360e31b81526001600160a01b03831660048201526024016103a9565b6001600160a01b03838116600081815260056020908152604080832094871680845294825291829020805460ff191686151590811790915591519182527f17307eab39ab6107e8899845ad3d59bd9653f200f220920489ca2b5937696c31910160405180910390a3505050565b6001600160a01b0383163b1561040d57604051630a85bd0160e11b81526001600160a01b0384169063150b7a02906109db9033908890879087906004016113a8565b6020604051808303816000875af1925050508015610a16575060408051601f3d908101601f19168201909252610a13918101906113e5565b60015b610a7f573d808015610a44576040519150601f19603f3d011682016040523d82523d6000602084013e610a49565b606091505b508051600003610a7757604051633250574960e11b81526001600160a01b03851660048201526024016103a9565b805181602001fd5b6001600160e01b03198116630a85bd0160e11b14610abb57604051633250574960e11b81526001600160a01b03851660048201526024016103a9565b5050505050565b6060610acd826106d2565b506000610ae560408051602081019091526000815290565b90506000815111610b055760405180602001604052806000815250610b30565b80610b0f84610cb8565b604051602001610b2092919061126b565b6040516020818303038152906040525b9392505050565b8080610b4b57506001600160a01b03821615155b15610c0d576000610b5b846106d2565b90506001600160a01b03831615801590610b875750826001600160a01b0316816001600160a01b031614155b8015610b9a5750610b988184610616565b155b15610bc35760405163a9fbf51f60e01b81526001600160a01b03841660048201526024016103a9565b8115610c0b5783856001600160a01b0316826001600160a01b03167f8c5be1e5ebec7d5bd14f71427d1e84f3dd0314c0f7b2291e5b200ac8c7c3b92560405160405180910390a45b505b5050600090815260046020526040902080546001600160a01b0319166001600160a01b0392909216919091179055565b610c48838383610d4b565b61042e576001600160a01b038316610c7657604051637e27328960e01b8152600481018290526024016103a9565b60405163177e802f60e01b81526001600160a01b0383166004820152602481018290526044016103a9565b610cab8383610dae565b61042e6000848484610999565b60606000610cc583610e13565b600101905060008167ffffffffffffffff811115610ce557610ce561101c565b6040519080825280601f01601f191660200182016040528015610d0f576020820181803683370190505b5090508181016020015b600019016f181899199a1a9b1b9c1cb0b131b232b360811b600a86061a8153600a8504945084610d1957509392505050565b60006001600160a01b0383161580159061060e5750826001600160a01b0316846001600160a01b03161480610d855750610d858484610616565b8061060e5750506000908152600460205260409020546001600160a01b03908116911614919050565b6001600160a01b038216610dd857604051633250574960e11b8152600060048201526024016103a9565b6000610de683836000610718565b90506001600160a01b0381161561042e576040516339e3563760e11b8152600060048201526024016103a9565b60008072184f03e93ff9f4daa797ed6e38ed64bf6a1f0160401b8310610e525772184f03e93ff9f4daa797ed6e38ed64bf6a1f0160401b830492506040015b6d04ee2d6d415b85acef81000000008310610e7e576d04ee2d6d415b85acef8100000000830492506020015b662386f26fc100008310610e9c57662386f26fc10000830492506010015b6305f5e1008310610eb4576305f5e100830492506008015b6127108310610ec857612710830492506004015b60648310610eda576064830492506002015b600a83106102b35760010192915050565b6001600160e01b03198116811461067f57600080fd5b600060208284031215610f1357600080fd5b8135610b3081610eeb565b60005b83811015610f39578181015183820152602001610f21565b50506000910152565b60008151808452610f5a816020860160208601610f1e565b601f01601f19169290920160200192915050565b602081526000610b306020830184610f42565b600060208284031215610f9357600080fd5b5035919050565b80356001600160a01b0381168114610fb157600080fd5b919050565b60008060408385031215610fc957600080fd5b610fd283610f9a565b946020939093013593505050565b600080600060608486031215610ff557600080fd5b610ffe84610f9a565b925061100c60208501610f9a565b9150604084013590509250925092565b634e487b7160e01b600052604160045260246000fd5b600067ffffffffffffffff8084111561104d5761104d61101c565b604051601f8501601f19908116603f011681019082821181831017156110755761107561101c565b8160405280935085815286868601111561108e57600080fd5b858560208301376000602087830101525050509392505050565b600080604083850312156110bb57600080fd5b6110c483610f9a565b9150602083013567ffffffffffffffff8111156110e057600080fd5b8301601f810185136110f157600080fd5b61110085823560208401611032565b9150509250929050565b60006020828403121561111c57600080fd5b610b3082610f9a565b6000806040838503121561113857600080fd5b61114183610f9a565b91506020830135801515811461115657600080fd5b809150509250929050565b6000806000806080858703121561117757600080fd5b61118085610f9a565b935061118e60208601610f9a565b925060408501359150606085013567ffffffffffffffff8111156111b157600080fd5b8501601f810187136111c257600080fd5b6111d187823560208401611032565b91505092959194509250565b600080604083850312156111f057600080fd5b6111f983610f9a565b915061120760208401610f9a565b90509250929050565b600181811c9082168061122457607f821691505b60208210810361124457634e487b7160e01b600052602260045260246000fd5b50919050565b808201808211156102b357634e487b7160e01b600052601160045260246000fd5b6000835161127d818460208801610f1e565b835190830190611291818360208801610f1e565b01949350505050565b601f82111561042e57600081815260208120601f850160051c810160208610156112c15750805b601f850160051c820191505b818110156112e0578281556001016112cd565b505050505050565b815167ffffffffffffffff8111156113025761130261101c565b611316816113108454611210565b8461129a565b602080601f83116001811461134b57600084156113335750858301515b600019600386901b1c1916600185901b1785556112e0565b600085815260208120601f198616915b8281101561137a5788860151825594840194600190910190840161135b565b50858210156113985787850151600019600388901b60f8161c191681555b5050505050600190811b01905550565b6001600160a01b03858116825284166020820152604081018390526080606082018190526000906113db90830184610f42565b9695505050505050565b6000602082840312156113f757600080fd5b8151610b3081610eeb56fea264697066735822122000f274cba268325d0b5c44308f0ceeec25e7cc19078666ec6eb2f0f7f0d6daed64736f6c63430008140033",
  "linkReferences": {},
  "deployedLinkReferences": {}
}